{
  "contractName": "CarShare",
  "abi": [
    {
      "inputs": [],
      "payable": false,
      "stateMutability": "nonpayable",
      "type": "constructor"
    },
    {
      "anonymous": false,
      "inputs": [
        {
          "indexed": false,
          "internalType": "address",
          "name": "",
          "type": "address"
        },
        {
          "indexed": false,
          "internalType": "uint256",
          "name": "",
          "type": "uint256"
        }
      ],
      "name": "Received",
      "type": "event"
    },
    {
      "constant": true,
      "inputs": [],
      "name": "crideno",
      "outputs": [
        {
          "internalType": "uint256",
          "name": "",
          "type": "uint256"
        }
      ],
      "payable": false,
      "stateMutability": "view",
      "type": "function"
    },
    {
      "constant": true,
      "inputs": [
        {
          "internalType": "uint256",
          "name": "",
          "type": "uint256"
        }
      ],
      "name": "crides",
      "outputs": [
        {
          "internalType": "uint256",
          "name": "id",
          "type": "uint256"
        },
        {
          "internalType": "address",
          "name": "driverid",
          "type": "address"
        },
        {
          "internalType": "string",
          "name": "carno",
          "type": "string"
        },
        {
          "internalType": "address",
          "name": "uid",
          "type": "address"
        },
        {
          "internalType": "string",
          "name": "source",
          "type": "string"
        },
        {
          "internalType": "string",
          "name": "destination",
          "type": "string"
        }
      ],
      "payable": false,
      "stateMutability": "view",
      "type": "function"
    },
    {
      "constant": true,
      "inputs": [],
      "name": "rideno",
      "outputs": [
        {
          "internalType": "uint256",
          "name": "",
          "type": "uint256"
        }
      ],
      "payable": false,
      "stateMutability": "view",
      "type": "function"
    },
    {
      "constant": true,
      "inputs": [
        {
          "internalType": "uint256",
          "name": "",
          "type": "uint256"
        }
      ],
      "name": "rides",
      "outputs": [
        {
          "internalType": "uint256",
          "name": "id",
          "type": "uint256"
        },
        {
          "internalType": "address",
          "name": "driverid",
          "type": "address"
        },
        {
          "internalType": "string",
          "name": "carno",
          "type": "string"
        },
        {
          "internalType": "address",
          "name": "uid1",
          "type": "address"
        },
        {
          "internalType": "address",
          "name": "uid2",
          "type": "address"
        },
        {
          "internalType": "address",
          "name": "uid3",
          "type": "address"
        },
        {
          "internalType": "string",
          "name": "source",
          "type": "string"
        },
        {
          "internalType": "string",
          "name": "destination",
          "type": "string"
        }
      ],
      "payable": false,
      "stateMutability": "view",
      "type": "function"
    },
    {
      "constant": true,
      "inputs": [],
      "name": "userCount",
      "outputs": [
        {
          "internalType": "uint256",
          "name": "",
          "type": "uint256"
        }
      ],
      "payable": false,
      "stateMutability": "view",
      "type": "function"
    },
    {
      "constant": true,
      "inputs": [
        {
          "internalType": "uint256",
          "name": "",
          "type": "uint256"
        }
      ],
      "name": "users",
      "outputs": [
        {
          "internalType": "uint256",
          "name": "id",
          "type": "uint256"
        },
        {
          "internalType": "string",
          "name": "name",
          "type": "string"
        },
        {
          "internalType": "string",
          "name": "email",
          "type": "string"
        },
        {
          "internalType": "string",
          "name": "phoneno",
          "type": "string"
        },
        {
          "internalType": "string",
          "name": "carno",
          "type": "string"
        }
      ],
      "payable": false,
      "stateMutability": "view",
      "type": "function"
    },
    {
      "constant": true,
      "inputs": [],
      "name": "getData",
      "outputs": [
        {
          "internalType": "string",
          "name": "",
          "type": "string"
        }
      ],
      "payable": false,
      "stateMutability": "view",
      "type": "function"
    },
    {
      "constant": false,
      "inputs": [
        {
          "internalType": "string",
          "name": "_name",
          "type": "string"
        },
        {
          "internalType": "string",
          "name": "_email",
          "type": "string"
        },
        {
          "internalType": "string",
          "name": "_phoneno",
          "type": "string"
        },
        {
          "internalType": "string",
          "name": "_carno",
          "type": "string"
        }
      ],
      "name": "addUser",
      "outputs": [
        {
          "internalType": "uint256",
          "name": "",
          "type": "uint256"
        }
      ],
      "payable": false,
      "stateMutability": "nonpayable",
      "type": "function"
    },
    {
      "constant": false,
      "inputs": [
        {
          "internalType": "address",
          "name": "_id",
          "type": "address"
        },
        {
          "internalType": "string",
          "name": "_carno",
          "type": "string"
        },
        {
          "internalType": "address",
          "name": "_uid",
          "type": "address"
        },
        {
          "internalType": "string",
          "name": "_source",
          "type": "string"
        },
        {
          "internalType": "string",
          "name": "_destination",
          "type": "string"
        }
      ],
      "name": "reached",
      "outputs": [],
      "payable": false,
      "stateMutability": "nonpayable",
      "type": "function"
    },
    {
      "constant": false,
      "inputs": [
        {
          "internalType": "address",
          "name": "_id",
          "type": "address"
        },
        {
          "internalType": "string",
          "name": "_carno",
          "type": "string"
        },
        {
          "internalType": "address",
          "name": "_uid1",
          "type": "address"
        },
        {
          "internalType": "address",
          "name": "_uid2",
          "type": "address"
        },
        {
          "internalType": "address",
          "name": "_uid3",
          "type": "address"
        },
        {
          "internalType": "string",
          "name": "_source",
          "type": "string"
        },
        {
          "internalType": "string",
          "name": "_destination",
          "type": "string"
        }
      ],
      "name": "finished",
      "outputs": [],
      "payable": false,
      "stateMutability": "nonpayable",
      "type": "function"
    },
    {
      "constant": false,
      "inputs": [
        {
          "internalType": "address payable",
          "name": "_receiver",
          "type": "address"
        },
        {
          "internalType": "uint256",
          "name": "_amount",
          "type": "uint256"
        }
      ],
      "name": "send",
      "outputs": [],
      "payable": true,
      "stateMutability": "payable",
      "type": "function"
    },
    {
      "constant": false,
      "inputs": [],
      "name": "receive",
      "outputs": [],
      "payable": true,
      "stateMutability": "payable",
      "type": "function"
    }
  ],
  "bytecode": "0x60806040526040518060400160405280600781526020017f74657374696e6700000000000000000000000000000000000000000000000000815250600090805190602001906200005192919062000066565b503480156200005f57600080fd5b5062000115565b828054600181600116156101000203166002900490600052602060002090601f016020900481019282601f10620000a957805160ff1916838001178555620000da565b82800160010185558215620000da579182015b82811115620000d9578251825591602001919060010190620000bc565b5b509050620000e99190620000ed565b5090565b6200011291905b808211156200010e576000816000905550600101620000f4565b5090565b90565b61187880620001256000396000f3fe6080604052600436106100a75760003560e01c80635205f112116100645780635205f112146101d4578063a3e76c0f14610218578063ae31f33414610222578063d0679d341461024d578063e4fc6b8614610269578063efdbda9a146102ab576100a7565b806301cda3ac146100ac57806307973ccf146100e9578063111bdb1914610114578063365b98b21461013f5780633bc5de301461018057806347b16527146101ab575b600080fd5b3480156100b857600080fd5b506100d360048036036100ce9190810190611330565b6102d4565b6040516100e09190611506565b60405180910390f35b3480156100f557600080fd5b506100fe6103b4565b60405161010b9190611506565b60405180910390f35b34801561012057600080fd5b506101296103ba565b6040516101369190611506565b60405180910390f35b34801561014b57600080fd5b50610166600480360361016191908101906113f3565b6103c0565b60405161017795949392919061162a565b60405180910390f35b34801561018c57600080fd5b50610195610656565b6040516101a291906114e4565b60405180910390f35b3480156101b757600080fd5b506101d260048036036101cd9190810190611271565b6106f8565b005b3480156101e057600080fd5b506101fb60048036036101f691908101906113f3565b610873565b60405161020f989796959493929190611521565b60405180910390f35b610220610b03565b005b34801561022e57600080fd5b50610237610b3e565b6040516102449190611506565b60405180910390f35b6102676004803603610262919081019061114f565b610b44565b005b34801561027557600080fd5b50610290600480360361028b91908101906113f3565b610b8f565b6040516102a2969594939291906115b4565b60405180910390f35b3480156102b757600080fd5b506102d260048036036102cd919081019061118b565b610dd3565b005b60006001600081548092919060010191905055506040518060a0016040528060015481526020018681526020018581526020018481526020018381525060026000600154815260200190815260200160002060008201518160000155602082015181600101908051906020019061034c929190611017565b506040820151816002019080519060200190610369929190611017565b506060820151816003019080519060200190610386929190611017565b5060808201518160040190805190602001906103a3929190611017565b509050506001549050949350505050565b60015481565b60055481565b6002602052806000526040600020600091509050806000015490806001018054600181600116156101000203166002900480601f0160208091040260200160405190810160405280929190818152602001828054600181600116156101000203166002900480156104725780601f1061044757610100808354040283529160200191610472565b820191906000526020600020905b81548152906001019060200180831161045557829003601f168201915b505050505090806002018054600181600116156101000203166002900480601f0160208091040260200160405190810160405280929190818152602001828054600181600116156101000203166002900480156105105780601f106104e557610100808354040283529160200191610510565b820191906000526020600020905b8154815290600101906020018083116104f357829003601f168201915b505050505090806003018054600181600116156101000203166002900480601f0160208091040260200160405190810160405280929190818152602001828054600181600116156101000203166002900480156105ae5780601f10610583576101008083540402835291602001916105ae565b820191906000526020600020905b81548152906001019060200180831161059157829003601f168201915b505050505090806004018054600181600116156101000203166002900480601f01602080910402602001604051908101604052809291908181526020018280546001816001161561010002031660029004801561064c5780601f106106215761010080835404028352916020019161064c565b820191906000526020600020905b81548152906001019060200180831161062f57829003601f168201915b5050505050905085565b606060008054600181600116156101000203166002900480601f0160208091040260200160405190810160405280929190818152602001828054600181600116156101000203166002900480156106ee5780601f106106c3576101008083540402835291602001916106ee565b820191906000526020600020905b8154815290600101906020018083116106d157829003601f168201915b5050505050905090565b6003600081548092919060010191905055506040518060c0016040528060035481526020018673ffffffffffffffffffffffffffffffffffffffff1681526020018581526020018473ffffffffffffffffffffffffffffffffffffffff168152602001838152602001828152506004600060035481526020019081526020016000206000820151816000015560208201518160010160006101000a81548173ffffffffffffffffffffffffffffffffffffffff021916908373ffffffffffffffffffffffffffffffffffffffff16021790555060408201518160020190805190602001906107e7929190611017565b5060608201518160030160006101000a81548173ffffffffffffffffffffffffffffffffffffffff021916908373ffffffffffffffffffffffffffffffffffffffff160217905550608082015181600401908051906020019061084b929190611017565b5060a0820151816005019080519060200190610868929190611017565b509050505050505050565b60066020528060005260406000206000915090508060000154908060010160009054906101000a900473ffffffffffffffffffffffffffffffffffffffff1690806002018054600181600116156101000203166002900480601f01602080910402602001604051908101604052809291908181526020018280546001816001161561010002031660029004801561094b5780601f106109205761010080835404028352916020019161094b565b820191906000526020600020905b81548152906001019060200180831161092e57829003601f168201915b5050505050908060030160009054906101000a900473ffffffffffffffffffffffffffffffffffffffff16908060040160009054906101000a900473ffffffffffffffffffffffffffffffffffffffff16908060050160009054906101000a900473ffffffffffffffffffffffffffffffffffffffff1690806006018054600181600116156101000203166002900480601f016020809104026020016040519081016040528092919081815260200182805460018160011615610100020316600290048015610a5b5780601f10610a3057610100808354040283529160200191610a5b565b820191906000526020600020905b815481529060010190602001808311610a3e57829003601f168201915b505050505090806007018054600181600116156101000203166002900480601f016020809104026020016040519081016040528092919081815260200182805460018160011615610100020316600290048015610af95780601f10610ace57610100808354040283529160200191610af9565b820191906000526020600020905b815481529060010190602001808311610adc57829003601f168201915b5050505050905088565b7f88a5966d370b9919b20f3e2c13ff65706f196a4e32cc2c12bf57088f885258743334604051610b349291906114bb565b60405180910390a1565b60035481565b8173ffffffffffffffffffffffffffffffffffffffff166108fc829081150290604051600060405180830381858888f19350505050158015610b8a573d6000803e3d6000fd5b505050565b60046020528060005260406000206000915090508060000154908060010160009054906101000a900473ffffffffffffffffffffffffffffffffffffffff1690806002018054600181600116156101000203166002900480601f016020809104026020016040519081016040528092919081815260200182805460018160011615610100020316600290048015610c675780601f10610c3c57610100808354040283529160200191610c67565b820191906000526020600020905b815481529060010190602001808311610c4a57829003601f168201915b5050505050908060030160009054906101000a900473ffffffffffffffffffffffffffffffffffffffff1690806004018054600181600116156101000203166002900480601f016020809104026020016040519081016040528092919081815260200182805460018160011615610100020316600290048015610d2b5780601f10610d0057610100808354040283529160200191610d2b565b820191906000526020600020905b815481529060010190602001808311610d0e57829003601f168201915b505050505090806005018054600181600116156101000203166002900480601f016020809104026020016040519081016040528092919081815260200182805460018160011615610100020316600290048015610dc95780601f10610d9e57610100808354040283529160200191610dc9565b820191906000526020600020905b815481529060010190602001808311610dac57829003601f168201915b5050505050905086565b60056000815480929190600101919050555060405180610100016040528060055481526020018873ffffffffffffffffffffffffffffffffffffffff1681526020018781526020018673ffffffffffffffffffffffffffffffffffffffff1681526020018573ffffffffffffffffffffffffffffffffffffffff1681526020018473ffffffffffffffffffffffffffffffffffffffff168152602001838152602001828152506006600060055481526020019081526020016000206000820151816000015560208201518160010160006101000a81548173ffffffffffffffffffffffffffffffffffffffff021916908373ffffffffffffffffffffffffffffffffffffffff1602179055506040820151816002019080519060200190610efb929190611017565b5060608201518160030160006101000a81548173ffffffffffffffffffffffffffffffffffffffff021916908373ffffffffffffffffffffffffffffffffffffffff16021790555060808201518160040160006101000a81548173ffffffffffffffffffffffffffffffffffffffff021916908373ffffffffffffffffffffffffffffffffffffffff16021790555060a08201518160050160006101000a81548173ffffffffffffffffffffffffffffffffffffffff021916908373ffffffffffffffffffffffffffffffffffffffff16021790555060c0820151816006019080519060200190610fed929190611017565b5060e082015181600701908051906020019061100a929190611017565b5090505050505050505050565b828054600181600116156101000203166002900490600052602060002090601f016020900481019282601f1061105857805160ff1916838001178555611086565b82800160010185558215611086579182015b8281111561108557825182559160200191906001019061106a565b5b5090506110939190611097565b5090565b6110b991905b808211156110b557600081600090555060010161109d565b5090565b90565b6000813590506110cb816117f0565b92915050565b6000813590506110e081611807565b92915050565b600082601f8301126110f757600080fd5b813561110a611105826116c6565b611699565b9150808252602083016020830185838301111561112657600080fd5b61113183828461179d565b50505092915050565b6000813590506111498161181e565b92915050565b6000806040838503121561116257600080fd5b6000611170858286016110d1565b92505060206111818582860161113a565b9150509250929050565b600080600080600080600060e0888a0312156111a657600080fd5b60006111b48a828b016110bc565b975050602088013567ffffffffffffffff8111156111d157600080fd5b6111dd8a828b016110e6565b96505060406111ee8a828b016110bc565b95505060606111ff8a828b016110bc565b94505060806112108a828b016110bc565b93505060a088013567ffffffffffffffff81111561122d57600080fd5b6112398a828b016110e6565b92505060c088013567ffffffffffffffff81111561125657600080fd5b6112628a828b016110e6565b91505092959891949750929550565b600080600080600060a0868803121561128957600080fd5b6000611297888289016110bc565b955050602086013567ffffffffffffffff8111156112b457600080fd5b6112c0888289016110e6565b94505060406112d1888289016110bc565b935050606086013567ffffffffffffffff8111156112ee57600080fd5b6112fa888289016110e6565b925050608086013567ffffffffffffffff81111561131757600080fd5b611323888289016110e6565b9150509295509295909350565b6000806000806080858703121561134657600080fd5b600085013567ffffffffffffffff81111561136057600080fd5b61136c878288016110e6565b945050602085013567ffffffffffffffff81111561138957600080fd5b611395878288016110e6565b935050604085013567ffffffffffffffff8111156113b257600080fd5b6113be878288016110e6565b925050606085013567ffffffffffffffff8111156113db57600080fd5b6113e7878288016110e6565b91505092959194509250565b60006020828403121561140557600080fd5b60006114138482850161113a565b91505092915050565b61142581611767565b82525050565b61143481611719565b82525050565b6000611445826116fd565b61144f8185611708565b935061145f8185602086016117ac565b611468816117df565b840191505092915050565b600061147e826116f2565b6114888185611708565b93506114988185602086016117ac565b6114a1816117df565b840191505092915050565b6114b58161175d565b82525050565b60006040820190506114d0600083018561141c565b6114dd60208301846114ac565b9392505050565b600060208201905081810360008301526114fe818461143a565b905092915050565b600060208201905061151b60008301846114ac565b92915050565b600061010082019050611537600083018b6114ac565b611544602083018a61142b565b81810360408301526115568189611473565b9050611565606083018861142b565b611572608083018761142b565b61157f60a083018661142b565b81810360c08301526115918185611473565b905081810360e08301526115a58184611473565b90509998505050505050505050565b600060c0820190506115c960008301896114ac565b6115d6602083018861142b565b81810360408301526115e88187611473565b90506115f7606083018661142b565b81810360808301526116098185611473565b905081810360a083015261161d8184611473565b9050979650505050505050565b600060a08201905061163f60008301886114ac565b81810360208301526116518187611473565b905081810360408301526116658186611473565b905081810360608301526116798185611473565b9050818103608083015261168d8184611473565b90509695505050505050565b6000604051905081810181811067ffffffffffffffff821117156116bc57600080fd5b8060405250919050565b600067ffffffffffffffff8211156116dd57600080fd5b601f19601f8301169050602081019050919050565b600081519050919050565b600081519050919050565b600082825260208201905092915050565b60006117248261173d565b9050919050565b60006117368261173d565b9050919050565b600073ffffffffffffffffffffffffffffffffffffffff82169050919050565b6000819050919050565b600061177282611779565b9050919050565b60006117848261178b565b9050919050565b60006117968261173d565b9050919050565b82818337600083830152505050565b60005b838110156117ca5780820151818401526020810190506117af565b838111156117d9576000848401525b50505050565b6000601f19601f8301169050919050565b6117f981611719565b811461180457600080fd5b50565b6118108161172b565b811461181b57600080fd5b50565b6118278161175d565b811461183257600080fd5b5056fea365627a7a723158205cf645c33773553233145d9c0bf5d321874ed6671d948f01dc80f97cb90eafa86c6578706572696d656e74616cf564736f6c63430005100040",
  "source": "// SPDX-License-Identifier: MIT\r\npragma solidity >=0.5.0 <0.7.0;\r\npragma experimental ABIEncoderV2;\r\n\r\ncontract CarShare{\r\n    // Model a User\r\n\tconstructor () public{\r\n\r\n\t}\r\n\tstring data='testing';\r\n\r\n\tfunction getData() view external returns(string memory){\r\n\t\treturn data;\r\n\t}\r\n\r\n    struct User {\r\n        uint id;\r\n        string name;\r\n\t\tstring email;\r\n        string phoneno;\r\n        string carno;\r\n    }\r\n\tstruct Ride{\r\n\t\tuint id;\r\n\t\taddress driverid;\r\n\t\tstring carno;\r\n\t\taddress uid1;\r\n\t\taddress uid2;\r\n\t\taddress uid3;\r\n\t\tstring source;\r\n\t\tstring destination;\r\n\t}\r\n\tstruct CRide{\r\n\t\tuint id;\r\n\t\taddress driverid;\r\n\t\tstring carno;\r\n\t\taddress uid;\r\n\t\tstring source;\r\n\t\tstring destination;\r\n\t}\r\n\tuint public userCount;\r\n\tmapping(uint => User) public users;\r\n    function addUser (string memory _name, string memory _email, string memory _phoneno, string memory _carno) public returns(uint){\r\n\t\t\tuserCount ++;\r\n\t\t\tusers[userCount] = User(userCount, _name, _email, _phoneno, _carno);\r\n\t\t\treturn userCount;\r\n\t}\r\n// \tfunction getRide (uint number) view public returns ( /*uint ,  address , string memory, address , address ,address , string memory, string memory*/\r\n// \tRide[] memory\r\n// \t){\r\n// \t\t//return (rides[number].id, rides[number].driverid, rides[number].carno, rides[number].uid1, rides[number].uid2, rides[number].uid3, rides[number].source, rides[number].destination);\r\n// \t\treturn rides[number];\r\n// \t\t// Ride memory newDati = Ride({\r\n//     \t// rideid: rides[number].id,\r\n// \t\t// carno: rides[number].carno,\r\n//     \t// source: rides[number].source,\r\n// \t\t// destination: rides[number].destination,\r\n// \t\t// uid1: rides[number].uid1,\r\n// \t\t// uid2: rides[number].uid2,\r\n// \t\t// uid3: rides[number].uid3\r\n//   \t\t// });\r\n// \t}\r\n\t\r\n\tuint public crideno;\r\n\tmapping(uint=> CRide) public crides;\r\n\tfunction reached (address _id, string memory _carno, address  _uid, string memory _source, string memory _destination)\r\n\tpublic{\r\n\t    crideno ++;\r\n\t    crides[crideno] = CRide(crideno, _id, _carno, _uid, _source, _destination);\r\n\t}\r\n\t\t\r\n\tuint public rideno;\r\n\tmapping(uint=> Ride) public rides;\r\n\tfunction finished (address _id, string memory _carno, address  _uid1,\r\n\taddress  _uid2, address _uid3, string memory _source, string memory _destination)\r\n\tpublic{\r\n\t\t rideno ++;\r\n\t\t rides[rideno] = Ride(rideno, _id, _carno, _uid1,_uid2, _uid3, _source, _destination);\r\n\t}\r\n\t\r\n\tfunction send(address payable _receiver, uint256 _amount) payable public {\r\n    _receiver.transfer(_amount);\r\n    }\r\n    \r\n    event Received(address, uint);\r\n    function receive() external payable {\r\n        emit Received(msg.sender, msg.value);\r\n    }\r\n\r\n}",
  "sourcePath": "C:\\Users\\babli\\Desktop\\BE retake\\RideShare\\contracts\\CarShare.sol",
  "compiler": {
    "name": "solc",
    "version": "0.5.16+commit.9c3226ce.Emscripten.clang"
  },
  "schemaVersion": "3.0.23",
  "updatedAt": "2021-04-20T13:15:18.243Z",
  "networkType": "ethereum",
  "devdoc": {
    "methods": {}
  },
  "userdoc": {
    "methods": {}
  }
}